:020000040800F2
:10000000D0040020D91600085D1600085F1600080D
:1000100000000000000000000000000000000000E0
:100020000000000000000000000000006116000851
:1000300000000000000000006316000865160008BC
:10004000DB060008000000002B0700084F13000823
:100050009F130008B7160008C316000815170008FC
:10006000000000006D160008171700081917000897
:100070001B1700081D1700081F17000800000000CC
:1000800021170008000000000000000023170008EE
:10009000000000002517000827170008291700088E
:1000A0002B1700082D1700082F170008311700081C
:1000B00033170008000000000000000000000000EE
:1000C000FEB507001BD0A84C3878C00719D5A16829
:1000D00038200840E1688025AD02102808D1880743
:1000E000800F032806D079686808814234D13BE04C
:1000F0000828F8D12068054003D07868002800D18E
:10010000B7E1387880077BD5A06838210140E268E4
:10011000B948BA4D10294ED19207920F022A4CD0FD
:10012000F968002900D196E0216808403969014347
:1001300021602068A10D0143216000F0ADFA3E006E
:1001400007002068400500D57DE000F0A5FAC01B3F
:100150000328F6D30320FEBDA022D202914207D18C
:10016000216882000A43226021680843206007E07A
:100170002068A349014021602068A2490140216014
:10018000786800280BD000F087FA06002068284025
:10019000B7D100F081FA801B6528F7D3DAE700F0C9
:1001A0007BFA060020682840ABD000F075FA801B6F
:1001B0006528F7D3CEE70029B2D12268520502D5CF
:1001C000FA68002A3ED0626815407A6912022A4312
:1001D000626000290ED1216808403969014321601D
:1001E000A648012122689204520F914000F05AFA69
:1001F000A3490860A348006800F070FA002821D1E4
:100200000225387800070AD5A0683821014018294E
:1002100031D1206E284002D0B869002812D0387839
:10022000400700D4A9E000200190A06838210140D7
:10023000202942D1E06D054000D19EE0B868002839
:1002400000D09AE015E1606805407069000228431B
:1002500060603700D4E720688B490140216000F0DE
:100260001BFA050020684005CAD500F015FA401BAE
:100270000328F7D36EE7B8690028206E0ED001215D
:100280000143216600F008FA0600206E2840C6D11E
:1002900000F002FA801B0328F7D35BE701218843B3
:1002A000206600F0F9F90600206E2840B7D000F073
:1002B000F3F9801B0328F7D34CE7E806E16B014014
:1002C00008D1E16B0143E163E16B084000900098C5
:1002D000012001906D4D2868C00512D4A00D00903A
:1002E000286800990143296000F0D6F906002868C3
:1002F0000099014005D100F0CFF9801B0328F6D307
:1003000028E7B8680121012805D00528E06D06D14D
:1003100004220243E265E06D0143E16505E08843A4
:10032000E065E06D04218843E0650226B868002896
:100330000CD000F0B1F90500E06D304016D100F0AE
:10034000ABF9401BA6498842F6D303E700F0A4F9B5
:100350000500E06D304009D000F09EF9401BA04937
:100360008842F6D3F6E600BF00100240019800284C
:1003700003D0E06B9B490140E163F86900287AD023
:10038000A16838220A40102A54D08026B604964923
:100390000228206838D10140216000F07DF9050075
:1003A0002068304005D000F077F9401B0328F7D3D0
:1003B000D0E6E0688D490140386A0843796A014314
:1003C000B86A00020843F96A0143386B0843E060E9
:1003D0002068710801432160E068F1000143E16099
:1003E00000F05AF905002068304044D100F054F97B
:1003F000401B0328F7D3ADE6FFC7FFFFFF80FFFFD9
:10040000FFFFFEFFFFFFFBFF01402160E0680321CB
:100410008843E060E06897490140E16000F03CF902
:1004200005002068304026D000F036F9401B032834
:10043000F7D38FE601281CD0E0688107890F3A6A5C
:10044000914216D1702101407A6A914211D1FE2168
:10045000C9010140BA6A120291420AD1F821890306
:100460000140FA6A914204D1400F4007396B88423B
:1004700001D00120FEBD0020FEBD00000024F400DC
:100480000C00002008000020FFFEFFFF007000406D
:10049000F8B5070066D00091774800684007400F24
:1004A000884218D2744C2068072188430099014380
:1004B000216000F0F1F8009D060020684007400F21
:1004C000A84207D000F0E8F8801B45498842F4D3E1
:1004D0000320F2BD00953968694C022001420CD01E
:1004E000490704D5A168E022D2010A43A260A168AD
:1004F000624A0A40B9681143A1600725ED43397883
:10050000C90732D57968012918D12068800329D517
:10051000A06828400143A16000F0BEF83E0007003B
:10052000A068382101407068C00081421CD000F0F2
:10053000B3F8C01B2A498842F2D3C9E7022902D185
:100540002068800103E0002903D120684005DFD442
:1005500008E0032903D1226E1040D9D102E0E26DF8
:100560001040D5D10120F2BD3700009842490968FA
:100570004907490F884217D23F4800680540009854
:1005800028433D49086000F087F8009D06003A487E
:1005900000684007400FA84206D000F07DF8801B9D
:1005A0000F498842F3D393E73878400705D5A06810
:1005B00034490140F8680843A06000F019F8324956
:1005C000A2681205120F9200895CC906C90EC840C4
:1005D0002E4908602E48006800F080F8F2BD000047
:1005E00089130000FFFFFFEFFFFFFFFE8C80C11F9C
:1005F00030B507212748224C3823A2681A4006D17B
:1006000023680122DB0A19408A4011001EE04208DB
:10061000A5681D40082D01D1100030BDA5681D4002
:10062000102D16D1E368E5682D092940491C7F2566
:100630009B079B0F032B00D1100000F033F8E168FB
:10064000090A0D406843E168490F491C00F02AF887
:1006500030BDA0681840202802D18020000230BDA3
:10066000A0680340182B02D1FA20C00130BD002041
:1006700030BD0000FFFFFEEF00200240FFF0FFFF53
:1006800000100240FF8FFFFF641500080C000020DF
:10069000080000200024F40001484068704700BFB3
:1006A00000000020094214D088420FD30122030C1D
:1006B00001D100041204002300185B418B4200D3D7
:1006C0005B1A5241F8D31900100070470100002056
:1006D000704708B500F028F808BDFEE770B50600C1
:1006E00000240F4D2978002916D0FA208000FFF74A
:1006F000D9FF01000B480068FFF7D4FF00F041F874
:10070000002809D1042E07D2002231000020C04366
:1007100000F029F8AE6000E00124200070BD00BFA9
:10072000000000200C0000207047FEE710B5C2005A
:1007300018231340FF249C40E2438907090E994087
:10074000030004D419489B089B00C01806E0184B0E
:100750000007000F083880088000181803681A4046
:100760001143016010BD80B5FFF7E0FF01BD00003F
:10077000010005D40121C006C00E81400D48016072
:10078000704710B5401E80214904884201D30120E2
:1007900010BD094C606003210020C043FFF7C6FF75
:1007A0000020A0600721216010BD000000E400E0EF
:1007B0001CED00E000E100E010E000E010B50423D3
:1007C0001940436907248C40A3438A401A4342617D
:1007D00010BDFEB50500002601960096002D01D142
:1007E0000120FEBD2C0054346068002804D128008C
:1007F00000F081FAA660267028688168C90013D4C9
:100800008168824A0A4080214905114381608048FD
:1008100000688049FFF746FF400001E00098401E55
:10082000009000980028F9D129688868C00008D491
:100830006068102202436260A06801220243A26045
:10084000012688686268D20600D4400700D5D5E04A
:100850006068714A02400220104360608A6880200C
:100860000006D20732D4CA6818239A43AB681343F0
:10087000CB60C02109066A680A402B6C13436A6C7E
:100880001A43AB6C1343EA6C1A4301923C22AA5CF4
:10089000012A03D1019A0123134301932A6817699E
:1008A0005E4B3B40019F1F4317616A688A420DD02F
:1008B00041088A420AD0824208D059490F68594BF0
:1008C0003B40F027BF0317401F430F60296B0029EF
:1008D00000D0C10C2A69104002D05000400801E04D
:1008E000802080030090A87E2A7E93036A7ED20334
:1008F0001A43430313431943EA680A430099114317
:100900002C22AA5C57000F432021695C01290ED1DB
:10091000002804D1380080277F02074307E0606881
:10092000202101436160A06801210143A160686A40
:10093000002806D0E02149000140A86A0843384356
:1009400007002868C168384A0A403A43C2602868EC
:100950000169364A0A400199114301616A6B00211D
:100960002868FFF72BFFAA6B31492868FFF726FF9D
:100970002869002806D12868816A0F22D2430A43D9
:10098000826221E08021890388421DD10022E16832
:1009900090000B00C3401807000F0F2802D0521C14
:1009A000082AF5D30F20C043012A04D129688A6A96
:1009B0001043886208E02A68936AEB695B1E5B0754
:1009C000DB0E9840014391620220C0432968C96848
:1009D000184A0A40BA4207D10021A1606168084064
:1009E0000121014361600EE061680840102101436C
:1009F00061600126A0683043A06004E060681021B7
:100A00000143616001263000FEBD0000E8FFFF7F6A
:100A10000C000020400D0300FFFEFFFF02FCFF1F43
:100A200008270140FFFFC3FF1902FEFF02FCFFDFA2
:100A300004FFFF07E7FF3F83F1B585B000206A465A
:100A40005070019005985422805C012801D1022049
:100A500021E105985430029001250570059806683B
:100A6000B068400700D509E101910598006903903D
:100A70000198406804908949894A8A4880231B0666
:100A8000049C022C039C00D1CEE09C4201D0844205
:100A900007D101980068B46A4003400B2043B0625C
:100AA00080E0019800680F24470302D14000C50E82
:100AB00047E0284244D1870743D4450701D50225A2
:100AC0003FE00825284201D003253AE0C70601D5BA
:100AD000042536E0870601D5052532E0470601D515
:100AE00006252EE0070601D507252AE0C70528D4EC
:100AF000850501D5092524E0450501D50A2520E015
:100B0000050501D50B251CE0C50401D50C2518E011
:100B1000850401D50D2514E0450401D50E2510E00E
:100B2000050401D50F250CE0C50301D5102508E00B
:100B3000850301D5112504E0400301D5122500E00D
:100B400000250498C006C00E6F4638700298C7682A
:100B5000BC46684607780F20B8406746874368461A
:100B6000007885403D430298C56001984068059D26
:100B7000ED6987087F1CBD4214D3019D2D68C00616
:100B8000C00E6F463870B76ABC46684607780F20BB
:100B9000B84067468743A80E044068460078844002
:100BA0003C43B46201988068019C2568059C2468D8
:100BB0002D026669AE4328403B4D054035436561D3
:100BC00001980468234061D01368C8431840374B2C
:100BD0009C4217D180231B04184257D1146821402E
:100BE000084303431360324800683249FFF75AFD57
:100BF0000C214843401C01900198002846D00198E0
:100C0000401EF8E72C4B9C4202D180235B0404E099
:100C10002A4B9C423AD18023DB03184236D1146818
:100C200021400843034327E09C4201D0844206D17F
:100C300001980068B46A4003400B8443B462019891
:100C40000468234022D01368C8431840174B9C42C5
:100C500003D1136819401A4B0CE0174B9C4203D187
:100C600013681940174B05E0144B9C420ED11368D2
:100C70001940154B03400B43136007E0029840688E
:100C80002021014302984160684645700020029986
:100C900008706846407806B0F0BD0000FFFF3FFED8
:100CA000082701400400008000FFFF07001000B08B
:100CB0000C000020400D0300004000B8002000B4EC
:100CC000FFFF7FFFFFFFFFFEFFFFBFFF81B02B484D
:100CD000012142680A434260426811400091009934
:100CE0008021490502680A430260006801400091C2
:100CF000009801B0704770B586B00400142200213E
:100D000001A800F045F820681D49884234D11D48EB
:100D100080214903C2680A43C260C2681140009141
:100D20000099012102680A430260006808400090AF
:100D300000980191032002900025039501A9A020AD
:100D4000C00500F02FF8104E10483060052070608C
:100D5000B560F56080203061803070618000B061E6
:100D60002020F0613562300000F0D6F8002801D074
:100D700000F0EBFA2665B46206B070BD3C1002408C
:100D8000002401403410024074000020080002409A
:100D900010B50400080011000200200000F0D8FA8D
:100DA000200010BDFEB500222CE0052602E0544FC5
:100DB000B842FAD1AE402643009C2660514C2568CB
:100DC000DC4325404E68F60300D51D434D4E35608B
:100DD000756825404F68BF0300D51D4375604A4DB7
:100DE0002E6826404D68ED0200D51E43464D2E600C
:100DF0006E6834404E68B60202D526001C003443AB
:100E00006C60521C0B681C00D44072D001259540C8
:100E10002B40F6D054000327A740FE4301964E68AE
:100E2000012E05D0022E03D0112E01D0122E0ED18C
:100E30008768019E3E40CF68A74037438760466879
:100E4000AE434D68EF06FF0F974037434760C568D4
:100E5000019E2E408D68A5403543C5604D68022D2A
:100E600001D0122D19D1D508AD0045192E6A029670
:100E700097001C263E406F463E70029EB4460F27E8
:100E80006E463678B7406646BE43B4460F696E4636
:100E90003678B740664637432F6207680326019DC0
:100EA0003D404F683740BC4627006446BC402C4359
:100EB00004604C68E400A4D5144C9508AD00641996
:100EC00000942468D70018253D400F27AF40BC434D
:100ED000A027FF05B84201D100266BE70C4FB842AE
:100EE00001D1012666E70B4FB84200D05FE702262A
:100EF00060E7F7BD002A01D08161704781627047C9
:100F0000000C005080180240001802406018024097
:100F1000000400500008005038B5040001D1012041
:100F200032BD2568244828181421FFF7BBFB800038
:100F3000206402202521605428682049014029604E
:100F400020680168A268E368134322691A43636951
:100F50001343A2691A43E3691343226A1A430A43FB
:100F60000260200000F0A2F80025A0688021C901DD
:100F7000884200D1656020798006800E616C08602F
:100F8000E06CA16C4860606800280AD0052808D28F
:100F9000200000F0A0F8206D0560A06D616D486034
:100FA00002E025656565A565E5630120252160549E
:100FB00024202554002032BDF8FFFDBF0F80FFFF25
:100FC000FEB54D490A6802920268136801934023F6
:100FD000C35C1C241C406B461C7020230424029D0F
:100FE0006E4636780427B7402F4015D0019D254026
:100FF00012D015682B4002D11368A34313604A68CE
:101000004023C35C1C251D40AC4014434C60016B65
:10101000002949D08847F7BD01240025029EB44627
:1010200002276E463678B740664637401BD0022608
:10103000019F374017D017683B4005D113680A2736
:10104000BB431360252284544A684023C35C1C249C
:101050001C40A64016434E6024214554C16A002915
:1010600022D08847F7BD08236E4636780827B74058
:101070006646374018D0019E334015D013680E26BF
:10108000B34313604A684023C35C1C261E400123FF
:10109000B34013434B60C463252144542421455479
:1010A000416B002900D08847F7BD000010B504004F
:1010B000206C032188431149401860642078083867
:1010C0001421FFF7EFFA0E49A1640121C006C00EFA
:1010D0008140E16410BD01798906890E8A00094BBF
:1010E000D2180265084A42650122491E8907890F04
:1010F0008A408265704700000000024000080240FC
:1011000080080240FC08024040090240F8B586B061
:1011100000F046F900F0D4F8142200216846FFF7E9
:1011200037FE20205F4D2968014329602968084067
:1011300005900598012628683043286028683040CB
:1011400005900598022728683843286028683840A9
:1011500005900598082029680143296029680840FE
:1011600005900598504C00222100A020C005FFF7F3
:10117000C1FE00224D494E48FFF7BCFE00220F2160
:101180004C48FFF7B7FE00940196002402940394A4
:101190006946A020C005FFF705FE0C2000900197CE
:1011A0000294039404966946A020C005FFF7FAFD57
:1011B000F020009001970294039404946946A020C3
:1011C000C005FFF7EFFD39480090019602940394A3
:1011D00069463748FFF7E6FD009701940294694697
:1011E0003348FFF7DFFDC020C00000900197029454
:1011F000039404966946A020C005FFF7D3FDF003D1
:101200000090019402946946A020C005FFF7CAFD32
:101210000F20009001960294039469462548FFF739
:10122000C1FD68683043686068683040009000988D
:10123000002200210920FFF796FA0920FFF798FA0B
:101240000C2200216846FFF7A3FD1B4D1B482860B8
:10125000802000066860AC60EC602C61042068614E
:101260002C83AC76EE6120216C546C62AC622C2134
:101270006E542C636C63AC633C216C54EC642800AA
:10128000FFF7A7FA002801D000F05FF8009601945C
:10129000029469462800FFF7CFFB002801D000F038
:1012A00054F8FEE73410024002180000FD0F000061
:1012B00000040050000C00501000002000240140E9
:1012C00030B597B0342200210AA8FFF761FD102243
:1012D00000216846FFF75CFD1822002104A8FFF7F3
:1012E00057FD8020800000F06FF801200A90000474
:1012F0000B900224119403201290002513951020C6
:10130000149040031590000316900AA8FEF7D8FE2B
:10131000002801D000F019F80720009001940295F0
:10132000039502216846FFF7B3F8002801D072B692
:10133000FEE760030490089504A800F06BF800280D
:1013400001D072B6FEE717B030BD72B6FEE7FEE719
:101350001206130A1A43130C1A4300BF094205D0A0
:10136000830705D00270401C491EF9D17047000068
:101370001300103906D330B41400150010393CC0E6
:10138000FCD230BC490700D30CC000D504C0890092
:1013900002D30280801C002900D502707047FEE74E
:1013A00010B5002407480168820D0A43026000203E
:1013B000FFF794F9002801D0012401E0FFF786FC33
:1013C000200010BD0020024010B50E4C21680E4ACE
:1013D0000A4002432260610D884210D10B48006828
:1013E000062148430A49FFF75DF9401C00E0401E12
:1013F0006169490503D50028F9D1032010BD0020FB
:1014000010BD000000700040FFF9FFFF0C0000203D
:1014100040420F00FEB5040000206A461070494D9E
:101420002168890355D5019080204005296B014032
:1014300008D1296B01432963296B08400190019869
:101440000120019040480068A90D01433E48016019
:10145000FFF722F906003C480068C00505D4FFF7F5
:101460001BF9801B0328F6D323E0296DC0208000E0
:101470000840364F00280ED0616988420BD0286D95
:101480003840296D802252020A432A65296D304A6C
:101490000A402A652865C0070FD5FFF7FDF806004A
:1014A000286D800709D4FFF7F7F8801B2949884287
:1014B000F6D303206946087004E0286D0740606990
:1014C000384328650198002803D0286B2249014041
:1014D00029632078C00705D5A86C0321884361687B
:1014E0000143A9642078800605D5A86C1B490140FA
:1014F000A0680843A8648020C001216801400DD085
:10150000A96C8900890822690A43AA642169020436
:10151000914203D1296882000A432A6021680905A3
:101520000DD5A96C0E4A0A40E1681143A964E1682F
:10153000814204D12868802149020143296068461C
:101540000078FEBD0C10024000700040FFFCFFFF61
:10155000FFFFFEFF89130000FFFFFFEFFFCFFFFF3C
:10156000FF3FFFFF0000000000000000000000003F
:10157000000000000000000000000000000000006B
:101580000000000001000000020000000300000055
:101590000400000006000000070000000800000032
:1015A0000900000070B40123002413E00168001D4D
:1015B000194202D04D466D1E49190C60091D121FBB
:1015C000042AFAD20D00960701D50C80AD1C1A40F2
:1015D00000D02C700268001D002AE7D170BC704753
:1015E00030B401220EE00368C31844680830144286
:1015F00002D04D466D1E64191D6825601B1D241DFB
:10160000091FF9D10168001D0029ECD130BC7047D9
:1016100010B5074979441831064C7C44163404E06F
:10162000081D0A68891888470100A142F8D110BD39
:1016300008000000280000006DFFFFFFC000000050
:10164000100000200000000099FFFFFF10000000C4
:10165000A80000000000002000000000FEE7FEE7F8
:101660007047704780B500F009F801BD80B50248A9
:10167000FFF7A6FC01BD000074000020024841688D
:1016800002788918416070470000002000F00DF8D2
:10169000002801D0FFF7BCFF00BF00BF002000BF43
:1016A00000BFFFF733FD00F002F80120704780B55E
:1016B00000F002F801BDFEE70746384600F002F8E8
:1016C000FBE7FEE780B500BF00BF024A110018200B
:1016D000ABBEFBE7260002000148804701480047F7
:1016E000E916000809170008802000050149086074
:1016F0007047000008ED00E001000000000000005D
:10170000040000000024F40000BF00BF00BF00BFC1
:10171000FFF7BCFFFEE7FEE7FEE7FEE7FEE7FEE7BA
:10172000FEE7FEE7FEE7FEE7FEE7FEE7FEE7FEE791
:04173000FEE7FEE7EB
:0400000508001709CF
:00000001FF
